:020000040800F2
:10000000500C0020890100086F1500083F110008FE
:100010006D150008D3020008131900080000000045
:10002000000000000000000000000000BF170008F2
:10003000D502000800000000BD170008C117000825
:10004000A3010008A3010008A3010008A301000800
:10005000A3010008A3010008A3010008A3010008F0
:10006000A3010008A3010008A3010008A3010008E0
:10007000A3010008A3010008A3010008A3010008D0
:10008000A3010008A3010008A3010008A3010008C0
:10009000A3010008A3010008A3010008A3010008B0
:1000A000A3010008A3010008A3010008A3010008A0
:1000B00025180008A3010008A3010008A3010008F7
:1000C000A3010008A3010008A3010008A301000880
:1000D000A3010008A3010008A3010008A301000870
:1000E000A3010008A3010008A301000800F002F822
:1000F00000F03AF80AA090E8000C82448344AAF188
:100100000107DA4501D100F02FF8AFF2090EBAE885
:100110000F0013F0010F18BFFB1A43F0010318473B
:10012000B4180000D4180000103A24BF78C878C171
:10013000FAD8520724BF30C830C144BF04680C60ED
:10014000704700000023002400250026103A28BF35
:1001500078C1FBD8520728BF30C148BF0B60704739
:100160001FB51FBD10B510BD00F07AF81146FFF79E
:10017000F7FF01F0E6FB00F098F803B4FFF7F2FF99
:1001800003BC00F09FF80000094880470948004779
:10019000FEE7FEE7FEE7FEE7FEE7FEE7FEE7FEE737
:1001A000FEE7FEE704480549054A064B7047000094
:1001B00023180008ED00000850060020500C002015
:1001C00050080020500800204FF000020429C0F021
:1001D000128010F0030C00F01B80CCF1040CBCF179
:1001E000020F18BF00F8012BA8BF20F8022BA1EBCB
:1001F0000C0100F00DB85FEAC17C24BF00F8012BB0
:1002000000F8012B48BF00F8012B70474FF00002A7
:1002100000B5134694469646203922BFA0E80C50FC
:10022000A0E80C50B1F12001BFF4F7AF090728BFD7
:10023000A0E80C5048BF0CC05DF804EB890028BF53
:1002400040F8042B08BF704748BF20F8022B11F07C
:10025000804F18BF00F8012B7047704770477047F8
:10026000754600F02BF8AE4605006946534620F06F
:100270000700854618B020B5FFF794FFBDE8204081
:100280004FF000064FF000074FF000084FF0000B52
:1002900021F00701AC46ACE8C009ACE8C009ACE805
:1002A000C009ACE8C0098D46704710B50446AFF3ED
:1002B00000802046BDE81040FFF75FBF0048704750
:1002C000F005002001491820ABBEFEE72600020021
:1002D0007047FEE7704772B6FEE7000070B504464F
:1002E00000F004F90546601C02D00448007804447C
:1002F00000F0FCF8401BA042FAD370BD00000020C3
:100300002DE9F84FDFF8B8910024A9F1040B23463A
:100310000F2709F1040AABF1040EC9E00125A5403D
:100320002A40AA427DD1674ED1F804C0ACEB060842
:10033000B44532D014DCBCF1030F3AD009DCBCF177
:10034000000F2AD0BCF1010F1CD0BCF1020F31D13B
:100350001DE0BCF1110F17D0BCF1120F2AD119E02A
:10036000B8F5881F19D006DCB8F5803F15D0B8F570
:10037000801F1FD111E0B8F5001F0ED0B8F5041F83
:1003800018D10AE0CB6815E0CB681B1D12E0CB68E2
:1003900008330FE0CB680C330CE08B682BB1012BDA
:1003A0004FF0080303D0456104E0042302E0056137
:1003B00000E00023FF2A01D8064601E000F1040610
:1003C0004FEA840501D9A5F12005D6F8008007FA87
:1003D00005FC28EA0C0803FA05F548EA0508C6F802
:1003E00000804D68ED0062D5374DAE6946F00106DC
:1003F000AE61AD6924F0030605F001050095334DAB
:1004000006EB050CDCF80850A607360F07FA06F8CD
:1004100025EA0805DFF8B880404503D14FF0000811
:1004200017E044E0DFF8AC80404502D14FF001080E
:100430000FE0DFF8A480404502D14FF0020808E049
:10044000DFF89880404502D14FF0030801E04FF0FB
:10045000040808FA06F848EA0508CCF808804D6850
:10046000D9F80060ED024D4601D5164300E09643F1
:100470002E604D68DAF80060AD02554601D516438E
:1004800000E096432E604D68DBF80060AD035D46EA
:1004900001D5164300E096432E604D68DEF80060FB
:1004A000ED03754601D5164300E096432E60641CAB
:1004B0000D682A46E5407FF431AFBDE8F88F0000B3
:1004C000080401400000111000100240000001402B
:1004D00000080140000C01400010014000140140E0
:1004E0008068084000D00120704700000148806803
:1004F000704700000000002070B5040025D094F87B
:100500003D00002520B984F83C50204600F050F909
:10051000242084F83D002068016821F00101016079
:100520002068016841F4004101602068016821F4FD
:100530000041016000F098FA4D4A6168914201D88B
:100540004C4900E04C49884201D2012070BD4B4922
:100550002368B0FBF1F15E6826F03F060E435E6053
:100560006368934206D94FF4967359434FF47A73F4
:10057000B1FBF3F12368491C1E6A26F03F063143A4
:1005800019626168914210D84900401EB0FBF1F237
:10059000521CC2F30B02042A01D2042022E0B0FB59
:1005A000F1F0401CC0F30B001CE0A268F2B301EBB9
:1005B000C10303EB0116431EB3FBF6F35B1C43F4CC
:1005C00080431B0549D092B301EBC10202EB01113C
:1005D000401EB0FBF1F0401CC0F30B0040F4804023
:1005E00040F400402168CA694CF6FF739A431043F7
:1005F000C861D4E9071001432068026822F0C002F4
:1006000011430160D4E9030101432068826848F284
:10061000FF339A4311438160D4E9050108432168FF
:10062000CA6822F0FF021043C86001E00EE016E045
:100630002068016841F0010101602564202084F8F0
:100640003D00256384F83E50002070BD01EB41065B
:10065000431EB3FBF6F35B1CB3E70120C2E701EBDB
:100660004101401EB0FBF1F0401CC0F30B00B7E7A6
:10067000A086010080841E0000093D0040420F005A
:100680002DE9FF4F83B09A46DDE911979346044662
:10069000DDF84080FFF72AFF054694F83D0020284A
:1006A0007FD11923012240492046009500F0E0FD4A
:1006B000002876D194F83C00012872D0012084F8FB
:1006C0003C0020680168C90703D1016841F00101BD
:1006D00001602068016821F400610160212084F834
:1006E0003D00402084F83E0000262664C4F82480A3
:1006F000A4F82A90608D20852C48E062CDE9007531
:1007000053465A462046049900F032FD70B930E055
:100710002A463946204600F051FE58B1206C042884
:1007200004D12068016841F400710160012007B024
:10073000BDE8F08F606A216800780861606A401C3B
:100740006062218D491E89B22185628D521E6285AB
:1007500022685369DB435B070BD469B100781061F1
:10076000606A401C6062208D401E2085608D401EA6
:100770006085208D0028CBD12A463946204600F0DE
:100780004BFD0028CAD154F83D0B016841F40071BB
:100790000160202004F81E09E67766770020C6E78E
:1007A000FFE70220C3E70000020010000000FFFF87
:1007B00010B586B00021009101910291039100686B
:1007C0000F4988421AD10F4CA06940F00800A0617F
:1007D000A069694600F008000490C0200090122033
:1007E0000190032003900848FFF78AFDE06940F478
:1007F0000010E061E06900F40010049006B010BD44
:100800000054004000100240000C01400248816882
:10081000027811448160704700000020074810B53D
:10082000016841F010010160032000F075F80F200D
:1008300000F006F800F024F8002010BD002002406F
:1008400070B50D4D04464FF47A712878B1FBF0F085
:100850000A490968B1FBF0F000F0CCFA48B9102C55
:1008600007D200222146501E00F036F800206C60AE
:1008700070BD012070BD0000000000200C000020B1
:100880000C4808B5816941F001018161816901F07D
:1008900001010091C16941F08051C161C06900F05E
:1008A000805000900448416821F0E06141F00071FF
:1008B000416008BD0010024000000140002809DB33
:1008C00000F01F02012191404009800000F1E0206A
:1008D000C0F8001170470000F0B40E4B1B680C46C6
:1008E000C3F30223C3F10705042D00D90425191D04
:1008F000072901D2002300E0DB1E012606FA05F1DC
:10090000491E214099409E40761E16403143F0BC5E
:1009100001F000B80CED00E0064900F0070208689D
:100920004FF6FF03184040EA0220034A10430860D4
:10093000704700000CED00E00000FA052DE9F047DB
:100940000F46050061D0434E306800F00700B84202
:1009500009D2306820F0070038433060306800F07A
:100960000700B84251D128683B4C810712D5400797
:1009700003D5606840F4E06060602878000703D524
:10098000606840F4605060606068A96820F0F00022
:10099000084360602878C00728D06868012810D014
:1009A0002168022810D0890700292EDA616821F019
:1009B000030101436160FFF799FD804641F28839E8
:1009C0000DE021688903EFE78901EDE7FFF78EFD70
:1009D000A0EB0801494502D90320BDE8F087606813
:1009E000696800F00C00B0EB810FEFD1306800F0C7
:1009F0000700B8420BD9306820F007003843306058
:100A0000306800F00700B84201D00120E5E72878FF
:100A1000400705D56068E96820F4E060084360603D
:100A20002878000706D56068296920F4605040EAFC
:100A3000C100606000F028F86168084AC1F3031142
:100A4000515CC8400649086006480068FFF7F8FE98
:100A50000020C2E700200240001002408C1900086C
:100A60000C00002004000020044805490068496883
:100A7000044AC1F30221515CC84070470C000020B9
:100A8000001002409C1900080E4A51680E4801F0FF
:100A90000C03042B11D0082B0FD10C48C1F3834356
:100AA000C903C05C0AD55168084AC1F34041921E8F
:100AB000515C054A5043B0FBF1F07047044948438C
:100AC000704700000010024000127A007C190008F4
:100AD00000093D002DE9F84F040070D02078C04D8A
:100AE000C00749D06868C0F38100012807D0686852
:100AF000C0F38100022809D16868C00306D52868C0
:100B0000800339D560680028E7D035E06068B0F52B
:100B1000803F0BD010B1B0F5A02F11D0286820F481
:100B200080302860286820F4802002E0286840F4A3
:100B300080302860606890B1FFF7D8FC06460AE074
:100B4000286840F480202860F0E700BFFFF7CEFC63
:100B5000801B642873D828688003F7D50CE0FFF762
:100B6000C5FC064605E000BFFFF7C0FC801B6428FB
:100B7000F0D828688003F7D420789A4E80074FF089
:100B800001094FF0000839D5686810F00C0F07D044
:100B90006868C0F38100022809D16868C00306D4E0
:100BA0002868800714D52069012808D110E0206941
:100BB000B0B1C6F80090FFF799FC074605E00AE1DE
:100BC000FFF794FCC01B0228C4D828688007F7D51B
:100BD0002868616920F0F80040EAC10028600DE053
:100BE000C6F80080FFF782FC074604E0FFF77EFCB2
:100BF000C01B022823D828688007F7D42078000774
:100C00002CD57948A169D9B1C0F80090FFF76EFCE6
:100C1000074604E0FFF76AFCC01B02280FD8686A89
:100C20008007F7D571484FF4FA510068B0FBF1F036
:100C3000009000BF0098411E0091FAD20EE080E0C3
:100C4000C0F80080FFF752FC074604E0FFF74EFCB7
:100C5000C01B022875D8686A8007F7D4207840073F
:100C600060D5E8690027C00008D4E86940F08050EA
:100C7000E861E869012700F0805000905C48016855
:100C8000C90513D40168834641F480710160FFF700
:100C90002DFC824606E000BFFFF728FCA0EB0A000F
:100CA00064284ED8DBF80000C005F5D5E0680128BF
:100CB0000AD008B1052813D0286A20F00100286264
:100CC000286A20F0040002E0286A40F0010028624F
:100CD000E06841F2883B98B1FFF708FC82460BE0E0
:100CE000286A40F004002862EEE700BFFFF7FEFB31
:100CF000A0EB0A0159455AD8286A8007F6D50CE0BE
:100D0000FFF7F4FB824605E0FFF7F0FBA0EB0A01DA
:100D100059454CD8286A8007F6D41FB1E86920F0FD
:100D20008050E861E06988B36968C1F381010229F4
:100D300044D00228C6F8608004D0FFF7D7FB0446F1
:100D400038E034E0FFF7D2FB074604E0FFF7CEFBC4
:100D5000C01B02282BD828688001F7D4206AB0F580
:100D6000803F05D16868A16820F4003008436860BE
:100D7000D4E908010843696821F4741108436860E4
:100D8000C6F86090FFF7B2FB044606E025E000BF1E
:100D9000FFF7ACFB001B022809D828688001F7D5B3
:100DA0001BE000BFFFF7A2FB001B022802D90320B3
:100DB000BDE8F88F28688001F4D40EE00128F7D050
:100DC0006868226A00F48031914204D1616A00F4BB
:100DD0007010884201D00120EAE70020E8E7000017
:100DE0000010024000004242800442420C000020F9
:100DF0000070004010B5401EB0F1807F01D301208B
:100E000010BD4FF0E02460610F21601700F082FDFB
:100E10000020A06107202061002010BD70477047AE
:100E200070B590F83C20012A26D0012480F83C407F
:100E3000022280F83D2003685A689D6822F07006FF
:100E40000A6832435A600D4B02689A4208D0B2F1E8
:100E5000804F05D00A4B9A4202D00A4B9A4204D1E5
:100E6000496825F080031943916080F83D400021D6
:100E700080F83C10084670BD022070BD002C014077
:100E8000000400400008004010B5040003D094F8AE
:100E90003D0010B107E0012010BD002084F83C00A7
:100EA000204600F01FF8022084F83D00211D206834
:100EB00000F0BEFC012084F8460084F83E0084F86F
:100EC0003F0084F8400084F8410084F8420084F830
:100ED000430084F8440084F8450084F83D00002075
:100EE00010BD000008B50068B0F1804F12D10A486B
:100EF000C16941F00101C161C069002200F0010037
:100F0000009011461C20FFF7E7FCBDE808401C20BC
:100F1000FFF7D4BC08BD00000010024070B50446C5
:100F200090F83C000025012817D0012684F83C6089
:100F3000022084F83D002068826822F0770222F4C3
:100F40007F4282600868502838D00DDC20284FD0BE
:100F500005DC90B3102811D14AE0022070BD302882
:100F600046D040280AD13BE060282FD070280DD011
:100F7000B0F5805F03D0B0F5005F12D0012584F892
:100F80003D60002084F83C00284670BDCB68D1E964
:100F90000121206800F088FC2068816841F0770119
:100FA00009E0CB68D1E90121206800F07DFC2068D0
:100FB000816841F480418160E1E719E0CA684968CD
:100FC000206800F083FC5021206806E0CA68496868
:100FD000206800F08CFC6021206800F06FFCCEE7F8
:100FE000CA684968206800F071FC40212068F4E775
:100FF000226801461046F0E770472DE9F0410446AB
:101000000068C66805694FF00007A90713D5B10746
:1010100011D5F91E016101202077206880698007C1
:10102000204602D0FFF7E8FF04E000F07EF82046FB
:1010300000F07CF82777680716D5700714D521686B
:101040006FF004000861022020772068806910F4A6
:10105000407F204602D0FFF7CFFF04E000F065F8A4
:10106000204600F063F82777280715D5300713D5F9
:1010700021686FF008000861042020772068C069AB
:101080008007204602D0FFF7B7FF04E000F04DF8DC
:10109000204600F04BF82777E80616D5F00614D561
:1010A00021686FF010000861082020772068C0696F
:1010B00010F4407F204602D0FFF79EFF04E000F0CE
:1010C00034F8204600F032F82777E80708D0F00718
:1010D00006D021686FF001000861204600F027F873
:1010E000280608D5300606D521686FF08000086113
:1010F0002046FFF793FE680608D5700606D52168DE
:101100006FF040000861204600F018F8A8060AD5E4
:10111000B00608D521686FF0200008612046BDE8C0
:10112000F041FFF77CBEBDE8F08170477047006872
:10113000B0F1804F01D100F06DB970477047FEE704
:1011400001684A69D24352050FD46FF480624A6144
:10115000002140F8301F202242738173026942F05F
:1011600004020261017301207047002070470000F3
:101170002DE9F843044600680D46DDE9089701684B
:101180009846164641F4807101604B4600224FF0AC
:1011900001112046009700F06BF848B12068006804
:1011A000C00502D54FF4007020640320BDE8F88329
:1011B000216805F0FE0008613B464A461549204675
:1011C00000F09EF888B920684169806900903A462D
:1011D0004946204600F0F2F848B1206C042804D1BA
:1011E0002068016841F4007101600120DEE7F5B27A
:1011F000B8F1010F09D02168300A08613A46494622
:10120000204600F0DBF80028E7D1206805610020C7
:10121000CCE700000200010070B516460D460446FA
:101220001EE02046FFF78CFF08B1012070BD681C4E
:1012300016D0FFF75BF9801BA84200D885B920685B
:101240004069C04340070BD5002044F8300F2021EF
:101250006173A073216941F0200121612073E4E7EB
:1012600020684069C0434007DBD4002070BD000007
:101270002DE9F047984617460D460446C1F3074648
:10128000DDF820902AE000BFB8F1FF3F26D0FFF73D
:101290002DF9A0EB0901414502D8B8F1000F1DD18D
:1012A0002068012E16D0806925EA00000004000C99
:1012B00012D00020B84211D1002044F8300F202174
:1012C0006173A073216941F0200121612073012025
:1012D000BDE8F0874069E7E70120EBE72068012ED1
:1012E0000AD0806925EA00000004000C06D0002026
:1012F000B842C9D00020EBE74069F3E70120F7E7E7
:101300002DE9F047984616460D4604464FF0000971
:101310004FF0200AC1F3074723E020684069C0432B
:10132000400515D42068016841F40071016021680E
:101330006FF480604861C4F8309084F83DA084F870
:101340003E90216C41F00401216484F83C9021E03E
:10135000701C06D0FFF7CAF8A0EB0800B04203D813
:1013600016B1012F1FD021E02068012F15D0806910
:1013700025EA00000004000C18D000BF44F8309F9C
:1013800084F80DA084F80E90216941F020012161BC
:1013900084F80C900120BDE8F087406925EA000040
:1013A0000004000CEAD12068406901E020688069EF
:1013B00025EA00000004000CAFD1ECE770B516463A
:1013C0000D4604461EE02046FFF7BAFE08B1012094
:1013D00070BD681C16D0FFF789F8801BA84200D8A2
:1013E00085B920684069C04300060BD5002044F849
:1013F000300F20216173A073216941F02001216128
:101400002073E4E720684069C0430006DBD4002075
:1014100070BD00002DE9F0410025184F29E000BF04
:10142000174805EB850200EB820450F82200A188E2
:10143000FFF756F8A07108B1012200E00022114B1D
:10144000E179002003EBC00696F800C08C450AD174
:1014500096F801C0944506D1716809B120468847C5
:10146000B078E07103E0401CC0B20628EAD36D1CDE
:10147000EDB238788542D3D3BDE8F081100000206A
:10148000B0000020A41900080D4808B5816941F09A
:1014900020018161816901F020010091816941F0A1
:1014A00004018161816901F004010091816941F0C9
:1014B00008018161806900F00800009008BD00000B
:1014C000001002400D4810B50B4901600C49416005
:1014D00000214FF480428160C0E9031241618161C3
:1014E000C1610162FFF708F8002803D0BDE8104091
:1014F000FEF7F1BE10BD00000054004014000020B3
:10150000801A060010B586B0002417480094019494
:101510000294039404944FF080410594016040F2DA
:10152000CF21C0E9011440F2E731C0E9031484611E
:10153000FFF7AAFC08B1FEF7CEFE4FF480500090F2
:1015400069460948FFF7EAFC08B1FEF7C4FE0494B7
:1015500004A905480594FFF763FC002801D0FEF7B5
:10156000BAFE06B010BD000068000020FEE7FEE7EE
:101570004FF480610148FEF727BE0000F001002013
:101580002DE9F04F1E464FF0000904460D46174660
:10159000C846B1420ED1BC4208DD2746144605E0DC
:1015A0002946204600F062F8641C24B2BC42F7DDF4
:1015B000BDE8F08FBC420DD1B54208DD1D460E4698
:1015C00005E02946204600F051F86D1C2DB2B542C9
:1015D000F7DDEDE703DD274614461D460E46B5420E
:1015E00005DD684205B2704206B24FF00109701B7A
:1015F000391B884207DD20462C46054638463746CB
:1016000006464FF00108701B4200391B0FFA82FB9F
:10161000421A52000FFA82FAC1EB400019E0604210
:1016200001B203E0684201B203E02146284601E02E
:101630002946204600F01AF8BC42B9DA641C24B2EC
:10164000002E02DA06EB0B0003E06D1C2DB206EB58
:101650000A0006B2B9F1000F03D0B8F1000FE1D0D3
:10166000DDE7B8F1000FE3D0DFE7000010B57F2819
:1016700013D8002911DB3F290FDCCA1701EB527286
:10168000D410064B22F0070203EBC41318448A1A45
:101690000378012191400B43037010BDF00100203D
:1016A00010B51420FEF71AFEAE2000F075F8D52014
:1016B00000F072F8F02000F06FF8A82000F06CF84D
:1016C0003F2000F069F8D32000F066F8002000F019
:1016D00063F8402000F060F8A12000F05DF8C82019
:1016E00000F05AF8DA2000F057F8122000F054F811
:1016F000812000F051F8DF2000F04EF8D92000F0F2
:101700004BF8F12000F048F8DB2000F045F83020DD
:1017100000F042F8A42000F03FF8A62000F03CF8CA
:101720008D2000F039F8142000F036F8AF2000F0DA
:1017300033F8FFF71DFFBDE8104000F011B810B5F9
:101740000C4640F0B00000F027F8102040EA1410DA
:1017500000F022F804F00F00BDE8104000F01CB8C3
:10176000FEB500240A4D661E00212046FFF7E7FF64
:1017700005EBC41080218DE843000123402278212D
:101780000448FEF77DFF641CE4B2082CECD3FEBDD8
:10179000F00100201400002001B584B001214FF4B5
:1017A000FA7204A88DE807000B460022782102484F
:1017B000FEF766FF05B000BD1400002070477047BB
:1017C000FFF724B830B58FB028216846FEF71EFD1C
:1017D00014210AA8FEF71AFD01210804CDE9001022
:1017E0000024029402250491CDE907504FF4E01043
:1017F00009906846FFF76EF908B172B6FEE70F2050
:10180000CDE90A054FF48060CDE90C4002210AA819
:101810000E94FFF793F8002801D072B6FEE70FB0E0
:1018200030BD70470148FFF7E8BB000068000020AA
:10183000F0B50268194B1A4C1A4D4FF08047984288
:1018400005D0B84203D0A04201D0A84203D122F073
:1018500070064A683243984205D0B84203D0A0428D
:1018600001D0A84203D122F44074CA6822434C69D3
:1018700022F08002224302608A68C2620A688262A1
:10188000984201D109690163012141610169C907D8
:1018900003D0016921F001010161F0BD002C01407C
:1018A000000400400008004010B5846842EA0322AA
:1018B00024F47F440A432243826010BD826822F0F0
:1018C00070020A4342F007018160704710B5036A55
:1018D000046A24F001040462846924F0F00444EAF8
:1018E000021423F00A020A438461026210BD10B59B
:1018F000036A046A24F010040462846923F0A003DC
:1019000024F4704444EA023243EA01118261016224
:1019100010BDFEE70907090E002804DB00F1E020F6
:1019200080F80014704700F00F0000F1E02080F80C
:10193000141D7047002101720069002800D0004783
:101940007047FEF76BFFFFF73DFFFFF79DFDFFF7C9
:10195000D9FDFFF7B7FDFFF7A3FE00213F237F224C
:101960000846FFF70DFEFFF7FBFEFEE701210172BF
:10197000C068002800D00047704701020203040538
:10198000060708090A0B0C0D0E0F101000000000CE
:10199000000000000102030406070809000000001F
:1019A0000102030400000100000000000100020029
:1019B0006D19000801010000000000000201030091
:1019C00000000000030100003519000803000200B8
:1019D00000000000F41900080000002014000000BE
:1019E00028010008081A0008140000203C0C000020
:1019F0004401000801000000100000000000000089
:081A000000127A000000000052
:04000005080000ED02
:00000001FF
